:0900000012000712017122210017
:10010000120122748012010E90015E120150C2B2DF
:100110008004D2B28000F590D2B3C2B3D2B3120140
:100120005522740112010E120155743812010E127B
:100130000155740C12010E120155740612010E12B3
:10014000015522243012011212015522120112A36C
:10015000E49370F822AE00AF05DFFEDEFA22202025
:1001600020555453205349534D494B202020002201
:10017000227589017580FE31C67580FD31C6758096
:10018000FB31C67580F731C67580EF31C67580DFEB
:1001900031C67580BF31C675807F31C675807E31AE
:1001A000C67580BD31C67580DB31C67580E731C646
:1001B00075801831C675802431C675804231C67588
:1001C000808131C680AE780585D88C85F08AD28C46
:0A01D000308DFDC28DC28DD8EF22E4
:00000001FF
